:100A8600494E495449414C4953494E472E2E2E2E24
:100A96000047534D204143434944454E5420444565
:100AA600540020564942524154494F4E3A204E4F27
:100AB600202000564942524154494F4E2044455445
:100AC6004543540020564942524154494F4E3A201C
:100AD600594553200053454E44494E47204D5347F0
:100AE6002E2E2E2E2E0039353639393531363536FD
:100AF600004143434944454E5420444554454354DC
:100B060045440036333030363733323536003830E8
:100B1600383034353730393900202020204D5347BE
:100B26002053454E54202020200043414C4C494E32
:100B3600472E2E2E2E2E2E2E2E2E00415441542B75
:100B4600434D47463D3141542B434D47533D415458
:0E0B5600444154480038000C000100060080A5
:100B64008B0A8A0B890CE4F516120D720516E5162C
:100B7400C3940240F47F0D120D79120D1AE4F51698
:100B8400900B43120D750516E516C3940940F17FC9
:100B94000D120D79120D1AE4F516E516900B4C930F
:100BA400FF120D790516E516C3940840ED7F221255
:100BB4000D79AB0AAA0BA90C120A57FF6010120D8B
:100BC400797401250CF50CE4350BF50B80E47F22D8
:100BD400120D797F0D120D79120D1AAB0DAA0EA903
:100BE4000F120A57FF6010120D797401250FF50FCB
:100BF400E4350EF50E80E47F1A120D797F507E00E5
:030C0400020D1EC0
:100C07008B0A8A0B890CE4F516120D720516E51688
:100C1700C3940240F47F0D120D79120D1AE4F516F4
:100C2700E516900B4393FF120D790516E516C3944D
:100C37000940ED7F0D120D79120D1AE4F516E51630
:100C4700900B5493FF120D790516E516C3940340D4
:100C5700EDAB0AAA0BA90C120A57FF6010120D7907
:100C67007401250CF50CE4350BF50B80E47F3B1282
:100C77000D797F0D120D797F507E00120D1E7F5862
:100C87007E02120D1EE4F516E516900B5793FF1220
:100C97000D790516E516C3940340ED7F507E0002DB
:020CA7000D1E20
:040D1A007F3C7E009C
:100D1E00E4FDFCD3ED9FEC9E5017758921758C4B2D
:100D2E00758AFDD28C308DFDC28D0DBD00010C80FB
:010D3E00E2D2
:010D3F002291
:070D7200900B41E51693FF11
:080D7900C2998F993099FD2207
:0F0D8100759850758921758DFD758BFDD28E2269
:100CA900780C7C007D007BFF7A0B795A7E007F0AE5
:100CB900120A31E4F50AF50BE50B25E0240CF808D6
:100CC900E6FF120D40E4FFFE0FBF00010EBE04F85F
:100CD900BFB0F5050BE50B7002050AD39404E50ACC
:040CE900940040D45F
:010CED0022E4
:100D40008F90C2A0C2A1D2A2E4FFFE0FBF00010E8D
:080D5000BE04F8BFB0F5C2A219
:010D58002278
:100D59008F90D2A0C2A1D2A2E4FFFE0FBF00010E64
:080D6900BE04F8BFB0F5C2A200
:010D7100225F
:0B0CEE007F80120D407BFF7A0A79978F
:100CF900120A57FF601A120D59E4FFFE0FBF0001D7
:100D09000EBE04F8BFB0F5740129F9E43AFA80E09F
:010D190022B7
:10080000120D81120CA97F80120D407BFF7A0A79AC
:1008100086120CF9E4F508F509AE08AF09E4FCFD11
:100820007B607AEAF9F8D3120A70400A0509E509F3
:1008300070E7050880E3120CEE7FC0120D407A0AC3
:1008400079A8120CF9D28020B20302094EC2807F2F
:1008500080120D407BFF7A0A79B9120CF97FC01221
:100860000D407A0A79CA120CF9E4F508F509050970
:10087000E50970020508B430F5E508B475F0E4F553
:1008800008F5090509E50970020508B430F5E50821
:10089000B475F07F80120D407BFF7A0A79DB120C71
:1008A000F98B0D750E0A750FF77A0A79EC120B6445
:1008B000750DFF750E0A750FF77BFF7A0B7909121C
:1008C0000B64750DFF750E0A750FF77BFF7A0B79B8
:1008D00014120B647FC0120D407BFF7A0B791F123C
:1008E0000CF9E4F508F5090509E50970020508B4F5
:1008F00030F5E508B475F0E4F508F5090509E509F2
:1009000070020508B430F5E508B475F0E4F508F5B3
:10091000090509E50970020508B430F5E508B47564
:10092000F07F80120D407BFF7A0B7930120CF97A40
:100930000A79EC120C077BFF7A0B7909120C077B02
:10094000FF7A0B7914120C07120CEE020847D280C2
:100950007FC0120D407BFF7A0A79A8120CF90208B9
:01096000474F
:03000000020D905E
:0C0D9000787FE4F6D8FD7581160208009B
:10096100E709F608DFFA8046E709F208DFFA803E78
:1009710088828C83E709F0A3DFFA8032E309F60865
:10098100DFFA8078E309F208DFFA807088828C83CD
:10099100E309F0A3DFFA806489828A83E0A3F60881
:1009A100DFFA805889828A83E0A3F208DFFA804C5B
:1009B10080D280FA80C680D4806980F28033801032
:1009C10080A680EA809A80A880DA80E280CA80339B
:1009D10089828A83ECFAE493A3C8C582C8CCC58313
:1009E100CCF0A3C8C582C8CCC583CCDFE9DEE780E3
:1009F1000D89828A83E493A3F608DFF9ECFAA9F062
:100A0100EDFB2289828A83ECFAE0A3C8C582C8CCB7
:100A1100C583CCF0A3C8C582C8CCC583CCDFEADED0
:100A2100E880DB89828A83E493A3F208DFF980CC32
:100A310088F0EF60010E4E60C388F0ED2402B4042B
:100A41000050B9F582EB2402B4040050AF232345D2
:060A510082239009B1733D
:100A5700BB010689828A83E0225002E722BBFE029D
:090A6700E32289828A83E49322D0
:100A7000EB9FF5F0EA9E42F0E99D42F0EC6480C8FD
:060A800064809845F0229D
:00000001FF
